:100000000C9435000C945D000C945D000C945D0024
:100010000C945D000C945D000C945D000C945D00EC
:100020000C945D000C945D000C945D000C945D00DC
:100030000C945D000C945D000C945D000C945D00CC
:100040000C940D020C945D000C94DB010C94B50132
:100050000C945D000C945D000C945D000C945D00AC
:100060000C945D000C945D00B10211241FBECFEF13
:10007000D8E0DEBFCDBF11E0A0E0B1E0E6EDF5E0F5
:1000800002C005900D92A831B107D9F721E0A8E18F
:10009000B1E001C01D92AE3BB207E1F710E0C5E34D
:1000A000D0E004C02197FE010E94DE02C433D107D4
:1000B000C9F70E9457020C94E9020C940000FC015D
:1000C000918D828D981761F0828DDF01A80FB11D8F
:1000D0005D968C91928D9F5F9F73928F90E00895B3
:1000E0008FEF9FEF0895FC01918D828D981731F06D
:1000F000828DE80FF11D858D90E008958FEF9FEFC1
:100100000895FC01918D228D892F90E0805C9F4F96
:10011000821B91098F7399270895FC01848DDF015B
:10012000A80FB11DA35ABF4F2C91848D90E001966A
:100130008F739927848FA689B7892C93A089B18959
:100140008C9180648C93938D848D981306C0028863
:10015000F389E02D80818F7D80830895EF92FF9257
:100160000F931F93CF93DF93EC0181E0888F9B8DDA
:100170008C8D981305C0E889F989808185FD24C09C
:10018000F62E0B8D10E00F5F1F4F0F731127E02E1F
:100190008C8DE8120CC00FB607FCFACFE889F989FC
:1001A000808185FFF5CFCE010E948D00F1CF8B8D30
:1001B000FE01E80FF11DE35AFF4FF0820B8FEA8931
:1001C000FB898081806207C0EE89FF896083E889AE
:1001D000F98980818064808381E090E0DF91CF9114
:1001E0001F910F91FF90EF900895CF93DF93EC0153
:1001F000888D8823C9F0EA89FB89808185FD05C047
:10020000A889B9898C9186FD0FC00FB607FCF5CF80
:10021000808185FFF2CFA889B9898C9185FFEDCFC8
:10022000CE010E948D00E7CFDF91CF91089581E24A
:1002300091E00E94810021E0892B09F420E0822FC7
:10024000089580E090E0892B29F00E941701811128
:100250000C9400000895CF92DF92EF92FF920F93DB
:100260001F93CF93DF936C017A018B01C0E0D0E044
:10027000CE15DF0589F0D8016D918D01D601ED9184
:10028000FC910190F081E02DC6010995892B11F4B4
:100290007E0102C02196ECCFC701DF91CF911F9163
:1002A0000F91FF90EF90DF90CF9008953FB7F894B3
:1002B00080911D0190911E01A0911F01B09120011C
:1002C00026B5A89B05C02F3F19F00196A11DB11DB1
:1002D0003FBFBA2FA92F982F8827820F911DA11DEC
:1002E000B11DBC01CD0142E0660F771F881F991F29
:1002F0004A95D1F708958F929F92AF92BF92CF9275
:10030000DF92EF92FF920E9456014B015C0184EF55
:10031000C82EDD24D394E12CF12C0E945601DC017F
:10032000CB0188199909AA09BB09883E9340A10508
:10033000B10558F021E0C21AD108E108F10888EEB1
:10034000880E83E0981EA11CB11CC114D104E104E5
:10035000F10419F7FF90EF90DF90CF90BF90AF902E
:100360009F908F9008950E94E4021F920F920FB603
:100370000F9211242F933F934F935F936F937F932B
:100380008F939F93AF93BF93EF93FF9381E291E09D
:100390000E948D00FF91EF91BF91AF919F918F913E
:1003A0007F916F915F914F913F912F910F900FBE71
:1003B0000F901F9018951F920F920FB60F92112455
:1003C0002F938F939F93EF93FF93E0913101F091DF
:1003D00032018081E0913701F091380182FD12C035
:1003E000908180913A018F5F8F7320913B0182173A
:1003F00051F0E0913A01F0E0EF5DFE4F958F809370
:100400003A0101C08081FF91EF919F918F912F91CF
:100410000F900FBE0F901F9018951F920F920FB65E
:100420000F9211242F933F938F939F93AF93BF937A
:100430008091190190911A01A0911B01B0911C01AA
:100440003091180123E0230F2D3720F40196A11DD0
:10045000B11D05C026E8230F0296A11DB11D2093F2
:1004600018018093190190931A01A0931B01B09376
:100470001C0180911D0190911E01A0911F01B0915E
:1004800020010196A11DB11D80931D0190931E01B5
:10049000A0931F01B0932001BF91AF919F918F91C5
:1004A0003F912F910F900FBE0F901F901895789449
:1004B00084B5826084BD84B5816084BD85B5826069
:1004C00085BD85B5816085BD80916E00816080931A
:1004D0006E00109281008091810082608093810083
:1004E0008091810081608093810080918000816093
:1004F000809380008091B10084608093B1008091EE
:10050000B00081608093B00080917A008460809315
:100510007A0080917A00826080937A0080917A00DC
:10052000816080937A0080917A00806880937A005D
:100530001092C10043E050E060E171E081E291E09F
:100540000E942B010E947B0143E050E064E171E0D6
:1005500081E291E00E942B010E947B010E94210117
:10056000E9CFE1E2F1E01382128288EE93E0A0E0AD
:10057000B0E084839583A683B78384E091E0918380
:10058000808385EC90E09587848784EC90E0978762
:10059000868780EC90E0918B808B81EC90E0938B50
:1005A000828B82EC90E0958B848B86EC90E0978B2D
:1005B000868B118E128E138E148E0895EE0FFF1FF0
:1005C0000590F491E02D099481E090E0F8940C946A
:0605D000E902F894FFCFE0
:1005D60000000000AE002B0181005F007300F500F3
:0805E600282D2900282B290013
:00000001FF
